:1000000000000220A5610200CD610200CF61020064
:10001000D1610200D3610200D5610200000000003E
:10002000000000000000000000000000811A020033
:10003000D961020000000000A11A0200DD61020087
:10004000D58C0200DF610200E5350200712F03004C
:10005000DF610200DF61020015240200DF6102009F
:10006000DF610200DF610200DF6102009927020008
:10007000DF610200DD8E0200DF610200DF6102004D
:100080006D330200E1160200DF610200DF61020051
:10009000DF610200DF610200DF610200DF61020058
:1000A000DF610200DF610200DF610200DF61020048
:1000B000DF610200DF6102000000000000000000BC
:1000C000DF610200DF610200DF610200812F0300B7
:1000D000A9270200DF610200112B000099440200F1
:1000E000DF610200000000000000000000000000CE
:1000F00000000000DF61020000000000912F0300FB
:1001000000000000000000000000000000000000EF
:1001100000000000000000000000000000000000DF
:1001200000000000000000000000000000000000CF
:1001300000000000000000000000000000000000BF
:1001400000000000000000000000000000000000AF
:10015000000000000000000000000000000000009F
:10016000000000000000000000000000000000008F
:10017000000000000000000000000000000000007F
:10018000000000000000000000000000000000006F
:10019000000000000000000000000000000000005F
:1001A000000000000000000000000000000000004F
:1001B000000000000000000000000000000000003F
:1001C000000000000000000000000000000000002F
:1001D000000000000000000000000000000000001F
:1001E000000000000000000000000000000000000F
:1001F00000000000000000000000000000000000FF
:10020000974E030000000000454600006D4F0300BC
:100210009C4E030000000000454600006D4F0300A7
:100220009E4E030000000000053A00001B5503002D
:10023000A34E030000000000393A000043550300BC
:10024000FF5A030000000000A13A0000FB54030025
:10025000A74A030001000000C9590000045B030025
:10026000A14A03000100000055700000326F030036
:100270009B4A030001000000257000000C6C030085
:10028000FE5A030002000000ED5900000D5C03005F
:100290002956030001000000394700005F560300A3
:1002A0007E57030001000000614800008D570300E5
:1002B00085570300010000008D4A0000FD57030030
:1002C000724E030001000000C93E0000D453030039
:1002D0007A4E0300010000003D3A0000FD4E03008D
:1002E0007F4E03000100000059430000F54F03005A
:1002F000844E030001000000E53D0000DF4E0300D6
:100300008B4E030001000000893D00000D540300E6
:10031000904E030001000000B93C00008F54030020
:100320002E56030001000000B147000035560300BF
:10033000A74A030002000000C156000089560000D1
:100340009D36000069380000705A03009B4A030084
:100350000200000079610000996900009D360000EC
:100360006938000000000000A14A030002000000FC
:100370008B610000996900009D360000693800001B
:100380000000000011330000BD3700000000000035
:10039000000000000000000000000000000000005D
:1003A000000000000000000000000000000000004D
:1003B000000000000000000000000000000000003D
:1003C000000000000000000000000000000000002D
:1020000010B5054C237833B9044B13B10448AFF332
:1020100000800123237010BD500800200000000044
:10202000A49F030008B5034B1BB103490348AFF35A
:10203000008008BD0000000054080020A49F030099
:10204000A3F5803A704700BF174B002B08BF134B16
:102050009D46FFF7F5FF00218B460F461348144AB3
:10206000121A17F045FE0E4B002B00D098470D4B6F
:10207000002B00D098470020002104000D000D48DF
:10208000002802D00C48AFF3008017F0DFFD2000DD
:10209000290000F013F817F0B3FD00BF000008009E
:1020A0000000000000000000000002205008002096
:1020B00084A40120000000000000000008B500F02A
:1020C00099F901F09BFB27F017F800F09DF902F059
:1020D00013FB01F0EDF901F07DF901F013F9FEE7D2
:1020E000704738B58AB204460D460146002000F01C
:1020F000DDF82A0C21460120BDE8384000F0D6B8B2
:10210000F7B50126324601A91F208DF8026000F0C4
:1021100075FD0446002840F08380019DB5F5003F21
:102120004FEA15477FD20146324600F089F8324621
:102130003146304600F084F8B74269D1C5F307252F
:10214000B54265D1394B019301990520FFF7C9FFCD
:10215000012201A91C2000F051FD044600285FD196
:1021600001990920FFF7BDFF012201A9112000F00C
:1021700045FD0446002853D1019A052100F0C2F81C
:10218000044600284CD1012201A9132000F036FD9D
:102190000446002844D1019A092100F0B3F804460E
:1021A00000283DD1012201A91E2000F027FD044690
:1021B000002835D1019B03F07F038DF801302BB14E
:1021C00001221B480DEB02010EF0A4FA012201A925
:1021D000182000F013FD044610BB019B8BB11B0CB3
:1021E00001220DF1030113488DF803300EF092FA2D
:1021F000019B11488DF8033001220DF103010EF00F
:1022000089FA01220DF102010C480EF083FA07E071
:10221000012201A91A2000F0F1FC0446002893D005
:10222000204603B0F0BD6FF00B04F9E7EE3FEE3F40
:10223000904203009A420300AC420300BE420300F6
:10224000F0B58BB005AC8DF80620164A8DF8071056
:10225000034602F11007264610685168254603C55B
:102260000832BA422C46F7D10F4C127861682068C8
:102270002A7002AA03C2218911802BB13033DBB24C
:102280008DF817308DF80B300DF107010122304623
:102290000EF040FA01220DF1060102A80EF03AFA02
:1022A0000BB0F0BDD8420300E9420300F0B589B09D
:1022B000134B019203AA05460C4603F1100C174676
:1022C00018685968164603C6083363453246F7D185
:1022D00019889B783180B370019BA3F57A53303510
:1022E0003034B3F57A7F8DF80F508DF8134005D850
:1022F00004220DEB020138460EF00CFA09B0F0BDD5
:10230000F3420300F0B5254B8DB003AC06468C4676
:1023100003F1200E254618685968274603C708337D
:1023200073453C46F7D119889B78BB70A2F1013305
:10233000B3F1FD3F39802CD8D3B2C2F307219942C3
:1023400029D1C2F307438B4225D1B3EB126F4FEA79
:10235000126120D10CF1300330360DF107026046D6
:102360008DF80F608DF8133008F0FCF8044668B95A
:102370009DF80720130443EA0223134343EA026350
:1023800002A90422284602930EF0C4F920460DB09B
:10239000F0BD0024FAE76FF00A04F7E706430300F4
:1023A0004FF0A04307B50C22C3F83C270F4B40F277
:1023B0000112C3F840251FF06BFD28B1852803D01A
:1023C0000121084600F036FA21F078F84FF08042FB
:1023D000D2F81834DB03FBD5054B1B6801934EF68E
:1023E000602003B05DF804EB184700BF00E0014037
:1023F0003843030008B500F04FFB03201FF0B7FB84
:10240000BDE80840FFF7CCBF08B5074B07481B687D
:10241000984700F095FF10B1044800F07BF9BDE843
:102420000840002000F092BB304403001D3400003F
:1024300048F21953984222DC48F20253984205DCD4
:10244000002814BF6FF0040000207047A0F505407D
:102450000338162810D8DFE800F00C220F0F0F0FFA
:102460000F0F0F0F0F0F0F2828282828250F2828B7
:1024700025006FF0110070476FF00400704748F2BC
:102480005053984211D0A0F50540D4BF4138603870
:10249000032834BF6FF00A006FF0040070476FF03C
:1024A000050070476FF0100070476FF00A0070472A
:1024B00008B5064B1A783AB901221A7024F034F89C
:1024C000BDE80840FFF7B4BF002008BDA009002008
:1024D00008B5054B187828B124F042F8BDE808404B
:1024E000FFF7A6BF08BD00BFA009002007B5042163
:1024F0000DEB010024F0A8F9019803B05DF804FB8E
:1025000010B588B007ACCDE903340023CDE9011242
:1025100007920093054903460222054823F0BCFFB9
:1025200008B0BDE81040FFF783BF00BFAC950300C3
:102530006C08002010B588B007ACCDE90334002347
:10254000CDE901120792009305490346022205488E
:1025500023F0A2FF08B0BDE81040FFF769BF00BF3D
:10256000D09503006C08002010B5044624F038F81C
:102570002046BDE8104000F083BD000037B5054699
:102580004C20019100F03EFD044660B1019A0749DC
:1025900024F00EF820B103B0BDE83040FFF748BF8B
:1025A0002C6003B030BD6FF01000FAE718960300FE
:1025B00030B589B0CDE900239DF840500C9C0695BC
:1025C0000F9DCDE904450D9D0A46CDE902450D2339
:1025D000012124F01BF809B0BDE83040FFF728BF07
:1025E00030B587B00D9D0A9C04950C9DCDE9024540
:1025F0000B9DCDE90045FFF7DBFF07B030BD30B5DF
:1026000089B0CDE900239DF840500C9C06950F9DA4
:10261000CDE904450D9D0A46CDE902450D23002173
:1026200023F0F4FF09B0BDE83040FFF701BF30B53B
:1026300087B00D9D0A9C04950C9DCDE902450B9D2C
:10264000CDE90045FFF7DBFF07B030BD70B50546AB
:102650004FF4A4700C46164600F0D4FC78B1214625
:1026600000F59A7304F1100251F8044B43F8044B3F
:102670009142F9D180F844612860002070BD6FF06C
:102680001000FBE700F0FCBC30B589B007ADCDE928
:102690000335CDE9011200230093079200F59A73E8
:1026A00090F84421034923F0F7FEFFF7C1FE09B07B
:1026B00030BD00BFF4950300024A13680133136074
:1026C000704700BFA4090020014B187820F0BEBE5F
:1026D000A10900201FB50C4A044607CA01AB83E8D4
:1026E00007000A490294184620F056FE08B11FF070
:1026F00089FB074820F08AFE08B11FF083FB20F019
:1027000077FE04B010BD00BF2C430300B9260000C3
:10271000A109002070B5154D06460FCD8AB004AC56
:102720000FC495E8030084E803002EB9104B114A4A
:102730001148502117F042FA104B11491E60114800
:1027400001234FF4007202F089FE0F4B0F4A0093F1
:102750004FF40073CDE9022301930D4A0623694625
:1027600004A81FF095FA0AB070BD00BF9C43030097
:1027700040430300B443030049430300BC0F00205F
:10278000BC0D0020AC0D0020A9090020A90B0020E1
:102790000128000008B51FF0D3FABDE808401FF07B
:1027A0001DBB70B506460D460024A54201DC002085
:1027B00070BD305D1FF0EAFA08B90134F5E71B205F
:1027C000F6E7000007B50DF107001FF0C9FA18B9C8
:1027D000084B1A781AB1187003B05DF804FB9DF825
:1027E0000710054802F096FE044B03481B68984703
:1027F000F2E700BFA8090020AC0D0020BC0F0020AC
:1028000003785A1E012A03D83721002000F012B89D
:102810000BB9FFF7D7BF704738B5054D044645F0F3
:1028200001054FF47A40A847013CFAD138BD00BFFA
:10283000D0430300144B2DE9F047DFF850A0197086
:1028400005460C464FF0A0480DB9BDE8F087264676
:10285000002EF9D003279AF800004FF0100920F05D
:10286000F5FD6420C8F80C95FFF7D6FFC8F8089569
:102870006420FFF7D1FF013FEDD14FF47A70FFF7ED
:10288000CBFF013EE4E700BFC00F0020A1090020FC
:10289000024B187880F00100704700BF4C100020F8
:1028A0007047000070B50446032938D8DFE801F00E
:1028B0000234142C204D204623F031FC81B21F48F5
:1028C00002F00EFE40211D4802F0E6FD014638BB35
:1028D0001B4B1C4A67210EE01B4B002201201A7083
:1028E0001FF00EF94021154802F0D6FD014628B927
:1028F000134B144A5221154817F060F9BDE8704097
:102900000D48402223F010BC0F4B0022BDE8704060
:1029100001201A701FF008B90B4B00221A7070BD0D
:102920004022284623F000FC0028C4D0084B03486E
:102930001B68BDE870401847704403005014002025
:10294000D6430300564403004C100020DF4303002D
:102950006014002008B5064B0A4601211970014693
:10296000044823F0BBFBB0FA80F0400908BD00BF6B
:102970004C1000207044030008B528B9134B144ACA
:102980001448C52117F01AF9134B144918604FF475
:1029900080621348402302F061FD22F047FE114B94
:1029A000114800221A7022F00BF808B11FF02AFA21
:1029B0000E4822F0A7F808B11FF024FA22F06CF8B4
:1029C00018B1BDE808401FF01DBA08BD4043030020
:1029D00048440300DF430300601400204D10002032
:1029E000501400204C100020944403007044030055
:1029F000023808B50D283CD8DFE800F0070C3B3B57
:102A00003B3B17272E3B3B3B1132BDE808400020E3
:102A10001FF08AB8BDE8084000201FF071B822F00E
:102A200055F8BDE808401FF093B821F073FA00BBD9
:102A30001FF0B6FA28B11FF09FFA1FF0B1FA002874
:102A4000FBD1BDE8084022F03FB822F051F8BDE8C4
:102A5000084000201FF066BABDE8084022F038B8F0
:102A600022F0DEFD052804D1BDE80840032002F075
:102A7000FFBD08BDBFF34F8F0549064BCA6802F47E
:102A8000E0621343CB60BFF34F8F00BFFDE700BF91
:102A900000ED00E00400FA0508B54FF08053D3F8CC
:102AA00030210D2A2BD1D3F83431022B29D8164AE4
:102AB000D35C002B0CBFFF225A224FF01023D3F817
:102AC0000832DBB293421ED010490123C1F804350D
:102AD000D1F80034002BFBD04FF01020D0F8083292
:102AE00023F0FF031343C0F80832084A0023C1F85B
:102AF0000435D2F80034002BFBD0FFF7BBFFFF22D8
:102B0000DBE75A22D9E708BDA044030000E00140FA
:102B1000044B9A6BF1EE103A136C23F09F0313648D
:102B2000704700BF00EF00E008B5FFF7A3FF00000B
:102B3000054AD2E900316FF07F401B1841F10001D6
:102B4000C2E90031704700BF6814002008B5084A88
:102B5000084909481FF06AFD40B907481FF0A4FD65
:102B6000BDE80840044801211FF006BE08BD00BFB3
:102B7000CD2C0000A444030008000020094B0A4AA1
:102B80001B68D3F80415094BD3E900030918A1FB0E
:102B9000020143F1000302FB0311C00B40EA414074
:102BA000C90B70470800002040420F006814002045
:102BB00038B50F4B1A680D46D2F80415D2F8043513
:102BC0009942FBD00B49D1E900240B499B1844F1F1
:102BD0000002A3FB013401FB0244DB0B43EA444344
:102BE000E40BC0E900342FF0C5FB286038BD00BFFE
:102BF000080000206814002040420F002DE9F8432F
:102C00000646894617460AB37F2822D81318802B18
:102C10001FD800F019FB804600F0C0F8054648B107
:102C200000F098F8044628B1404600F012FB204618
:102C3000BDE8F8833A464946B0B22FF07DFD1DB19C
:102C400000F074F80446EFE72C46EDE76FF00A0455
:102C5000EDE76FF00804EAE7074930B500231424D4
:102C600004FB03F5DAB26D5C854203D00133042B1B
:102C7000F6D11A46104630BD7014002010B5094B2D
:102C800000211A465C78844201D11C7C34B90131A0
:102C9000042903F11403F5D1002010BD142000FB1A
:102CA0000120FAE770140020074A00231046117C27
:102CB00031B10133042B02F11402F8D10020704726
:102CC000142202FB0300704770140020052813B57E
:102CD00004D102B0BDE81040FFF72ABF0190FFF712
:102CE000BBFF03281CD80F4B142404FB0034D4E989
:102CF00001309847637C01990B4863B10368D3F8AE
:102D00000425E3681A4422F07F42012302B0BDE8A3
:102D100010401FF0EFBC02B0BDE810401FF0D0BC67
:102D200002B010BD701400201000002038B5084D0E
:102D300000F08AFA2B78044623B902202FF07EFB9C
:102D400001232B70204600F084FA002038BD00BF1C
:102D50001800002038B50F4D00F076FA2B780446A5
:102D60009BB14FF4A0610C4800F042F84FF4C870DA
:102D700000F0B6FA4FF41061074800F039F84FF44C
:102D8000FA7000F0ADFA00232B70204600F061FAD3
:102D9000002038BD1800002028000020014B1878C2
:102DA000704700BF1800002070B5084C064600258B
:102DB0002368B34203D163680BB1A0689847043518
:102DC000182D04F11004F3D170BD00BFC014002011
:102DD0001F2886BF00F01F00044B4FF0A04300F5F2
:102DE000E07053F8200000F001007047000300502D
:102DF000D0E9003203F01F0370B543EA421369B90A
:102E00001F2B86BF03F01F031A4A4FF0A04203F5A1
:102E1000E073022142F82310002070BD480754BF20
:102E2000C1F3C004032411F400650CBF002603267F
:102E3000C1F300221F2B88BF03F01F0342EA4202A6
:102E400042EA84028CBF0B484FF0A04003F5E074C7
:102E500042EA062240F824201DB101229A40C0F81F
:102E600008254A0542BF012202FA03F3C0F80C35D7
:102E7000D2E700BF00030050D0E9000300F01F00BC
:102E800040EA431389B11F2B8ABF094A4FF0A04281
:102E900003F01F03D2F81005D84010F001001DBF49
:102EA000012300200B70087070476FF00A00704714
:102EB0000003005037B5D0E9005305F01F050C465C
:102EC00045EA43151FF06EF978B114F4805313D11D
:102ED0002F4A52F823108D4217D12846FFF778FF6A
:102EE000012818D16FF00A000DE01FF015F9002835
:102EF000EBD06FF0050006E028461FF02BFA2846BD
:102F00001FF04AFA002003B030BD0433182BE0D183
:102F10006FF01800F7E714F4F83FE3D004F4C0337F
:102F2000B3F5803F2FD0B3F5C03F07D0B3F5004FC6
:102F3000D8D1184BB3F803205B7902E0154B1A88FF
:102F40009B78ADF804208DF80630019BADF8003079
:102F500022074FEA13438DF8023044BF01238DF856
:102F60000130630748BF03230B4A48BF8DF8013087
:102F7000694628461FF020F90028C9D101212846BA
:102F80001FF09AF9BEE7034BDA881B7AD9E700BF36
:102F9000C0140020AA440300A92D000070B5D0E998
:102FA000004304F01F0444EA43142046FFF710FFD7
:102FB000012822D0124B00200501EE58B44207D15F
:102FC0002B449A600122C3E900411A73002016E0E5
:102FD00001300628F0D10A4D00202E7B16B903EBF4
:102FE0000013EEE70130062805F11005F5D1204663
:102FF0001FF0B0F96FF0180001E06FF00A0070BD2B
:10300000C014002010B5044608B9002010BD0830D7
:1030100000F021F90028F8D000230370044A054B82
:103020004480436013681B1B13600830EEE700BF49
:1030300058000020ADDEADDE414338B50C4602D16C
:103040000023184638BD01F1080000F004F90546D8
:103050000028F5D000F1080322460021184616F09A
:1030600047FE00222A70044A6A60044A6C80116894
:10307000091B03461160E4E7ADDEADDE5800002019
:1030800010B508B30828A0F1080318D010F8082CD0
:103090000E495868884205D00D4B0E4A34210E481F
:1030A00016F08CFD022A03D90C4B0A4A3521F6E7AB
:1030B0000B485C8850F82210214440F82210BDE8EB
:1030C0001040184600F0C9B80346F8E7ADDEADDEA3
:1030D000B34403009F450300CA440300284503008E
:1030E0005800002070B50C4658B130F8066C10F846
:1030F000085CA0F10803A21B3CB9FFF7C1FF002048
:1031000070BD034606460546F5E7022D05D9154B69
:10311000154A4921154816F051FD3BB1586814492C
:10312000884203D0134B104A4A21F3E7002A04DBFC
:10313000114951F825108A42E1D804F108011846D6
:1031400000F08DF80028DAD0094B43600A4B448028
:103150000570341B53F82560344443F8254008308B
:10316000CEE700BF2845030096450300CA4403008C
:10317000ADDEADDE444503005800002070B50C46BE
:10318000054608B9002070BD022905D90D4B0E4A2D
:103190000E48602116F012FD0D4E56F82130834284
:1031A000F0D3083000F057F80028EBD0094B4580E9
:1031B0000470436056F824305B1B46F82430083016
:1031C000E1E700BF6345030088450300CA440300EC
:1031D00058000020ADDEADDE4143F8B515460C4683
:1031E00002D100231846F8BD022A05D9114B124A14
:1031F0001248772116F0E2FC114F57F822308B422B
:10320000EFD301F1080000F026F806460028E8D0C8
:1032100000F1080322460021184616F069FD094A0C
:1032200074803570726057F82510091B47F8251017
:103230000346D7E7634503007A450300CA44030009
:1032400058000020ADDEADDE08B51EF035FA0020D6
:1032500008BD1EF03BBA1EF015BB1EF08FBB70B54B
:103260000C46064628B9C1B1BDE8704008461EF0BC
:1032700009BB91B108461EF005FB054658B156F84A
:10328000042C083AA24228BF2246314616F022FDFD
:1032900030461EF073FB284670BD2546FBE7000054
:1032A00008B51DF06BFC044B002158434FF47A73B2
:1032B000B0FBF3F008BD00BF40420F0013B5074C50
:1032C00023782BB9019021F051FA01230198237042
:1032D00002B0BDE8104021F067BA00BF2015002001
:1032E00013B5074C23782BB9019021F03FFA012345
:1032F0000198237002B0BDE8104021F049BA00BF28
:103300002015002008B51DF0F7FB002008BD0000C7
:1033100008B5034903484FF41C7216F0DBFC08BDE6
:10332000A8450300D805002000487047D8050020B4
:1033300000487047D805002000487047100600205C
:10334000014B93F868027047D8050020014B83F8C1
:1033500068027047D805002073B5184D2B6863B913
:103360001748052208211CF07CFB286028B9154B62
:10337000154A1648472116F021FC154E28684FF0D3
:10338000FF3269461CF0D8FB0028F7D1009B022BC6
:1033900008D0042BF2D14FF4FA70FFF78FFF00F042
:1033A000B9FDEBE7019800F0FDF9044600F00EFAD4
:1033B0003146436920469847E0E700BF34170020B4
:1033C00038170020184803009348030027480300DB
:1033D0002115002013B54FF40060FFF713FE0C4CCD
:1033E0004FF400630322CDE90032A0600346094A8E
:1033F000094800211CF0D6FC206030B9382101209A
:1034000002B0BDE81040FFF715BA02B010BD00BF12
:10341000241700208B48030059330000074B1B681A
:1034200007B53BB10223CDE90030054B694618686A
:103430001CF05AFB03B05DF804FB00BF241700200A
:103440003417002007B500230193074B074C5D6834
:10345000A847052201A920681CF088FC00F0BEF8EE
:1034600003F0ACFDF4E700BF384303006017002011
:10347000074B1B6810B54BB1FFF7E6FE044600F0A2
:1034800059F82046BDE81040FFF7E3BE10BD00BF6D
:1034900064170020044B1B6823B1044B00211868FB
:1034A0001CF05BBC704700BF641700206017002051
:1034B00007B54FF40070FFF7A5FD4FF4007202212D
:1034C000CDE900210346114A114800211CF06AFC95
:1034D000104B186018B938210120FFF7ABF91CF028
:1034E0001CFC0D4B186018B938210120FFF7A2F918
:1034F00000F014F830B10921012003B05DF804EBAD
:10350000FFF798B903B05DF804FB00BF9C480300C7
:1035100045340000641700206017002008B51CF037
:1035200033FB034B1860B0FA80F0400908BD00BFC0
:103530007097002038B5094D4FF0FF3128681CF016
:1035400041FB044638B9064B9880588028681CF027
:103550005DFB204638BD0120FCE700BF70970020CE
:1035600068170020F8B5164E04460D46306840F640
:1035700021311CF027FB08BB12494B888A885F1C4D
:10358000D21BC2F30E02954215DB0921FFF752F957
:1035900009240BE0CA1810F8014B94710133C3F3EE
:1035A0000E032A1A002AF5DC4B80002430681CF038
:1035B0002DFB2046F8BD20462544F2E70124F8E71C
:1035C000709700206817002007B5FFF7CBFF019028
:1035D000FFF760FF019803B05DF804FB2DE9F041AF
:1035E0002A4E4FF0FF3130681CF0ECFA00284AD127
:1035F000274DAF886C88E41BC4F30E0434B9002453
:1036000030681CF003FB2046BDE8F08102F036F87C
:10361000032824D0402C1F49A0463B4628BF4FF02A
:1036200040080022E8180132807901F8010B0133CB
:103630009045C3F30E03F5DCAB80FFF781FEA8B124
:10364000402C2146134828BF4021FFF7AAF8002844
:10365000D5D01B210020FFF7EDF81B24D0E70E4B3F
:103660005B6998470028D5D10124C9E70A4B09486E
:103670009B68414698470028C1D10B21FFF7DAF833
:103680000B24AF80BCE70124BDE700BF709700208A
:103690006817002074970020304403002DE9F74399
:1036A0008046FFF7D1FD3A4C3A4E07460025B8F860
:1036B0000A301BB93846FFF7CCFD0AE00DF10701CF
:1036C000404601F08BFF814638B93846FFF7C1FD0F
:1036D0004D46284603B0BDE8F0839DF80730082B1F
:1036E00001D07F2B10D12C480321FFF76DFF2388D9
:1036F0000BB1013B23802388B3F5007F21BF00235A
:10370000238002233370D2E701210DF10700FFF778
:103710005BFF9DF807300A2B01D00D2B0CD12288BE
:10372000002AE8D03378002BE5D11C490A20022575
:10373000885423803570DEE7208896F800C017494A
:10374000421CBCF1020F0B5492B20BD17B2B08BF71
:103750001349228009BF0123002333700B7018BF67
:103760003370C8E72280BCF1000FC4D07B2B04D19A
:103770000B4A137801331370BDE77D2BBBD108488A
:103780000378013BDBB20370002BB4D1CEE700BF5E
:10379000B697002064000020A248030021150020F5
:1037A000B497002010B50446408930B100F00EF8FF
:1037B00003692046BDE81040184710BD014B024A7E
:1037C0001A60704748080020AC480300014B186895
:1037D000704700BF68000020034B044A002818BF50
:1037E00003461360704700BF4808002068000020AF
:1037F00008B5FFF799FDD0F8600208BD002025F05C
:1038000063BC000038B505464FF49670FFF7FAFB2D
:10381000044608B3114917F01AFA284617F01FFAA0
:10382000B0F5907F0BD82946E01D17F010FA284616
:1038300017F015FA07300A49204417F008FA204615
:1038400017F00DFA074B01465B6820469847204663
:10385000BDE83840FFF714BC38BD00BFC8480300BE
:10386000C16003006C0000202DE9F04F022889B0F0
:10387000064600AF0D464DD1084617F0F0F9DFF8C7
:103880007C81DFF87CA15349C8F800A081466B1EFB
:1038900013F8014F002C41D12B783C737B2B45D181
:1038A000284601F0D3FD8346002849D04A4901F05B
:1038B000D1FD0369002B45D048497B60584601F093
:1038C000C9FD044630B17B68454907F10C02184632
:1038D00017F026F9434AC8F800A0D8F80030934200
:1038E00032D36C468EB0404A07F10C033221684651
:1038F00017F0C2F86846FFF785FFA546BBF1000F39
:1039000002D0584601F08CFB5FFA89F2002128466C
:1039100016F0EEF92437BD46BDE8F08F0A5D02F0DF
:103920000302022A08BF203C1C70B1E72F4907F1AF
:10393000080307F10C02284617F0F2F8A346C9E77E
:103940000446C7E71C46C5E7196859B307F10C00E0
:103950007B6017F072F97B68224A824610BB1B79A4
:103960003BB1012B15D1FFF731FF0379012B18BFB4
:103970000126FFF72BFF83692BB15968D8F8002087
:103980001B7A534507DC012E10D11948FFF73AFF87
:10399000B4E70126EDE701EB0A10824206D00AF1F6
:1039A000010AEEE71033C8F8003096E7D8F8003087
:1039B000B9689B68224628469847044638B117F0F4
:1039C0004EF90C4B01465B682046984796E70A483B
:1039D000DCE700BF958D0300D3480300DC480300FB
:1039E000E74803003003000005490300EB480300EB
:1039F000F24803006C0000201C490300B897002027
:103A00000002000007B5FFF733FD074B07485B686E
:103A100002219847064B019301A825F07BFB05483E
:103A200003B05DF804FB00BF6C000020C160030020
:103A3000AC480300B14E030001F072B87FB500231B
:103A400006460C460093FFF777FC104905466B4687
:103A500001AA304617F064F8C0B2022807D095F8E2
:103A6000B8100B4801F0DAFD0A4804B070BD012C13
:103A700006D804F0010385F8B83085F86440F3E710
:103A80000548214601F0CAFD0448EEE7EB48030073
:103A900026490300B14E030032490300AA4E030039
:103AA0002DE9F341464B186800909B88ADF804302F
:103AB0004FF4AF70FFF7A6FA074600287CD045F612
:103AC0005A224049404EDFF8588117F009F83F4923
:103AD000B81D17F0BCF83E4A3E4907F1110016F038
:103AE000FFFF00F11105FFF771FE7C1902683A49EA
:103AF000204616F0F5FF054438496A46781916F055
:103B0000EFFF2C18364B374A3749384D381916F025
:103B1000E7FF04F121003649384417F098F82934BA
:103B2000B54207EB04003CD310F8013C31492C2B83
:103B300008BF04F1FF34381917F089F82EF074FA31
:103B4000261DBC1902462C49204616F0C9FF064422
:103B500005F0D4FDBC1902462849204616F0C0FFE6
:103B600034182749381917F072F8221F2549B81C54
:103B700016F0B6FF7B23A01C2349BB71384417F015
:103B800066F8224B04345B68214638469847B4F502
:103B9000AF7F0DDD1E4B1F4A1F4840F2C51116F0C6
:103BA0000DF855F8102B414616F09AFF0444B7E77C
:103BB0003846FFF765FA194F384602B0BDE8F08184
:103BC0006F4A030056490300800200005D4903006C
:103BD0007C9F0300694903007A4903009049030070
:103BE000A2490300AB490300B7490300500200009B
:103BF000CA490300D9490300DE490300EC49030028
:103C0000FB5A030058490300C16003006C00002008
:103C1000004A030080550300184A0300B14E030018
:103C2000D3490300F0B50E1E89B0054617460BDDDB
:103C30001C49304417F00BF8284617F010F80146DD
:103C40002846FFF7C1FC0026174B0793384617F0AC
:103C500006F807AA0446104617F001F8C4F1240438
:103C6000B4EB400317D411490391A3EB630007AAF7
:103C7000CDE90170009104920D495B10284616F0C1
:103C80002FFF284616F0EBFF01462846FFF79CFC65
:103C9000304609B0F0BD07493A46284616F020FFE5
:103CA000EFE700BFC16003002D2D2D00A5480300E4
:103CB000754A03004158030070B586B00646FFF709
:103CC00033FB0446FFF738FB2249054603AB304679
:103CD0006A4616F025FF022806460BD0D4F860325B
:103CE00033B119681C4801F099FC1C4806B070BD3E
:103CF0001B49F7E71B4903A816F09FFF28B91A4B89
:103D0000C4F8603285F82402EFE7184903A816F0DA
:103D100094FF30B9164BC4F86032012385F8243281
:103D2000E3E7144903A816F088FF18B9124BC4F84A
:103D30006032DAE70A4903A816F07FFF28B90F4B73
:103D4000C4F8603285F82462CFE70D4801F066FCC4
:103D50000C48CBE7864A03008D4A0300B14E0300AE
:103D6000A64803009B4A03004C030000A14A03003D
:103D700068030000A74A030030030000AC480300BA
:103D8000B04A0300AA4E030010B503F039F9FFF75B
:103D90005BFA044625F074F92046FFF75AFA014809
:103DA00010BD00BFB14E030038B505461BF088FDBD
:103DB000044698B90A480CF065FD044660B906F05F
:103DC0009DFA044630B9284603F0BAFD044628B1EE
:103DD00005F0CCFE0CF078FD1BF04CFD204638BD04
:103DE000000000207FB5002301A80193FFF7DCFF4E
:103DF00018BB02A9019803F04FFE0499104801F086
:103E00000DFCDDE902210F4801F008FC05990E4880
:103E100001F004FCDDE90221059B0C4801F0FEFBEA
:103E2000019803F09BFD05F0A1FE0CF04DFD1BF089
:103E300021FD074807B05DF804FB0648FAE700BF1C
:103E4000CF4A0300EB4A0300094B0300234B030056
:103E5000B14E0300AA4E030038B505460C4692B198
:103E600020440A490A3416F03BFE272C0BDD084992
:103E7000281916F0ECFE284616F0F1FE01462846F9
:103E8000FFF7A2FB0024204638BD00BF444B0300CF
:103E9000C1600300F8B506460B46144642B11268ED
:103EA000FFF7C0FE676803460025227A954201DBD2
:103EB0001846F8BD2A011946BA583046FFF7CCFF1C
:103EC00001350346F1E7000013B5FFF7BDF90446DD
:103ED000002025F0E7F82046FFF7BBF9002301A8F2
:103EE0000193FFF761FF70B9019803F076FD019827
:103EF00003F034FD05F03AFE0CF0E6FC1BF0BAFCD2
:103F0000024802B010BD0248FBE700BFB14E0300FB
:103F1000AA4E030007B5044B019301A825F0FAF857
:103F200003B05DF804FB00BFAC4803002DE9F0438B
:103F3000A5B00446FFF7F8F92D210546204616F0F6
:103F40006FFE002800F0028120468249824FDFF890
:103F50006482DFF8649217F055FD0026044603964C
:103F60001CB9012025B0BDE8F08303AA39462046DC
:103F700016F0D6FD012815D1039800F013FE01308C
:103F800005D1039A754904A816F0AAFDCDE003985F
:103F900000F008FE28706F49002017F033FD01364D
:103FA0000446DDE703AA4146204616F0B9FD012884
:103FB0000CD1039800F018FE013002D1039A684931
:103FC000E1E7039800F010FEE870E4E703AA494631
:103FD000204616F0A5FD01280CD1039800F062FEE2
:103FE000013002D1039A5F49CDE7039800F05AFEF1
:103FF0006871D0E75C4903AA204616F091FD0128BC
:104000000AD1039800F068FE013002D1039A5749A3
:10401000B9E7039BAB71BEE7554903AA204616F0EA
:104020007FFD01280CD1039800F0C5FD013002D1BD
:10403000039A5049A7E7039800F0BDFDE871AAE78D
:104040004D4903AA204616F06BFD01280CD10398B8
:1040500000F04CFE013002D1039A484993E70398DF
:1040600000F044FE287296E7454903AA204616F060
:1040700057FD01280CD1039800F042FE013002D117
:10408000039A40497FE7039800F03AFE687282E79E
:104090003D4903AA204616F043FD01280CD10398A0
:1040A00000F00EFE013002D1039A38496BE7039805
:1040B00000F006FE28736EE7354903AA204616F085
:1040C0002FFD01280CD1039800F0A2FD013002D190
:1040D000039A304957E7039800F09AFD68735AE74E
:1040E0002D4903AA204616F01BFD01280CD1039888
:1040F00000F010FE013002D1039A284943E70398EB
:1041000000F008FEA87346E7254903AA204616F0EA
:1041100007FD012813D1039A3F2A0DD93F230093AD
:104120002049002304A816F0DBFC1F4B01465B6806
:1041300004A89847002015E785F869222BE7F3B219
:10414000002B3FF428AF194922461CE718492246A4
:1041500019E700BF4A4B03004D4B0300554B0300CA
:10416000744B0300914B0300AF4B0300BA4B0300A9
:10417000D34B0300DC4B0300F54B0300004C030062
:10418000194C0300244C03003D4C0300484C030031
:10419000614C03006B4C0300824C03008E4C030007
:1041A000A84C0300B44C03006C000020EC4C03004E
:1041B000034D03006D4B0300884B03002DE9704C49
:1041C0004FF49670FEF71EFF8246FFF7ADF845F6F6
:1041D0005A2283465049504616F082FC4F490AF154
:1041E000060016F034FD9BF8000000F0E2FC4C499C
:1041F00002460AF1170016F073FC00F117069BF84F
:10420000030000F0FBFC0AEB060402464549204689
:1042100016F066FC06449BF8050000F04AFD0AEB28
:10422000060402464049204616F05AFC06449BF814
:10423000060000F056FD0AEB060402463B49204604
:1042400016F04EFC34189BF8070000F0C2FC0AEB95
:10425000040502463649284616F042FC25189BF80C
:10426000080000F048FD0AEB0504024631492046EB
:1042700016F036FC05449BF8090000F046FD0AEBF9
:10428000050402462C49204616F02AFC05449BF8FA
:104290000C0000F01FFD0AEB0504024627492046EA
:1042A00016F01EFC05449BF80D0000F0D6FC0AEB4E
:1042B000050402462249204616F012FC05449BF8EC
:1042C0000E0000F031FD0AEB050402461D492046B0
:1042D00016F006FC05449BF869221B490AEB050011
:1042E00016F0FEFB0544AA1F18490AF1020016F059
:1042F000F7FB7B238AF8063015490AEB050016F018
:10430000A6FC144BA91C50465B6898475046BDE874
:10431000704CFEF7B5BE00BF564903007A4D03004E
:104320008C4D0300994D0300A54D0300B34D0300D0
:10433000C34D0300D14D0300E14D0300F14D0300D7
:10434000014E0300104E0300214E030058490300A4
:10435000C16003006C00002010B58CB004AB0B49A9
:1043600001AA044616F0DCFBC3B2012B05D1084CB0
:10437000FFF724FF20460CB010BD022B04D12046CD
:10438000FFF7D4FD0028F2D1024CF1E7314E0300D3
:10439000B14E0300AA4E03002DE9F84F4FF496707A
:1043A000FEF730FE454DDFF84881C5F80080044631
:1043B00000283DD0FEF748FF06464148414FDFF850
:1043C00034B116F04CFC7B6801463D4898477B6849
:1043D0003D48022198474FF0000AC5F800802A683E
:1043E0003A4B9A4227D3FFF7F1F90279022A52D1C8
:1043F000FFF7ECF98269002A4DD0FFF7E7F9514643
:1044000082692046FFF746FD82462F4904EB0A00E9
:1044100016F01DFC204616F022FC7B680146204663
:1044200098473046FEF715FF2046FEF729FE284C38
:104430002046BDE8F88F92F80490B9F1000F13D12F
:104440002A68424519D1234A51462046FFF7EAFB24
:104450008246B9F1020F0CD02A68514612682046F4
:10446000FFF7FAFC824604E0FFF7B0F90279012A6F
:10447000E6D02A6810322A60B1E7174B9A4201D180
:10448000164AE1E75A4501D1154ADDE715498A4246
:10449000DFD1154AD8E7FFF799F90279012AB4D19B
:1044A000124DDFF8548006E0AA6951462046FFF716
:1044B000F1FC1C3582464545F6D3A6E7B8970020A7
:1044C0007C9F03006C000020C160030030030000EB
:1044D000B14E0300B84E030050020000C94E030065
:1044E000E24F0300C00200007E54030030030000CE
:1044F0000002000090020000840300002DE9F74F45
:1045000006464FF49670FEF77DFD444DDFF824819A
:10451000C5F80080044600287ED0FEF795FEC5F859
:104520000080DFF8148107462B68434516D33C49C9
:104530003C4D204616F08BFB204616F090FB3A4B84
:1045400001465B68204698473846FEF782FE2046C3
:10455000FEF796FD284603B0BDE8F08F93F804906F
:10456000FFF734F903794B4506D12B68186860B919
:104570002B6810332B60D7E7B9F1000FF5D0FFF7A8
:1045800025F90379012BF3D1EFE7314616F055FBFE
:104590000028EDD132462549DFF88C90204616F0F0
:1045A0009FFA204616F05BFBD9F8043001462046FE
:1045B00098472B68DE680D21304616F031FBF0B9C4
:1045C000DFF878B0DFF878A05A4633464E2120460F
:1045D00016F052FA0190204616F041FB5146204455
:1045E00016F035FB204616F03AFBD9F804300146A8
:1045F00020469847019A4D2A09DD4D36E4E73046BA
:1046000016F02DFBD9F804300146304698472B6848
:1046100043458CD2064D97E7054D9BE7B8970020A0
:10462000424E0300AA4E03006C0000203A4E0300E5
:10463000B14E030000020000300300008A4A03006C
:10464000C160030030B587B00C4615460E496B4675
:1046500003AA16F065FA012804D0022808D0002029
:1046600007B030BD2A46214603A8FFF795FEF7E7BD
:104670009DF800302A46214623B90DF10100FFF7CD
:104680003DFFEDE76846FAE7694E0300FFF7B0B873
:1046900007B5FFF7FBFF019010B101A824F03AFD28
:1046A000134B144C5D68A847C821684624F03EFDB2
:1046B000013019D0FFF78AF8C3681BB1FFF786F8FD
:1046C000C36898470020FFF787F81BF0B5FB0098F8
:1046D000FFF782F8009B9B680BB100209847236985
:1046E00098471BF0A9FBDEE702F038FCF7E700BFB4
:1046F000384303003044030007B541F2CC00FEF715
:1047000081FC41F2CC020521CDE900210346084A93
:10471000084800211BF046FB30B93821012003B0C6
:104720005DF804EBFEF786B803B05DF804FB00BF4C
:1047300087550300914600007FB5002306460C46CE
:104740000093FEF7FDFD144905466B4601AA30466D
:1047500016F0E6F9C0B2022806D01048294600F04B
:104760005DFF0F4804B070BD012C0ED83DB10CB9EF
:10477000FEF710F804F00100FEF7E8FDF1E7002C69
:10478000F8D00848FDF7C6FFF4E70748214600F0D7
:1047900045FF0648E6E700BFEB4803008F550300DE
:1047A000B14E03001D34000032490300AA4E03003D
:1047B000F8B51BF085F8044628B12048204C00F0DD
:1047C0002DFF2046F8BD4FF40070FEF71BFC054698
:1047D00030B91C481A4C00F021FF1BF04BF8F0E7F1
:1047E000FEF732FD8022064629462046FEF706FAED
:1047F00004463046FEF72DFD3CB11348104C00F046
:104800000DFF2846FEF73CFCE7E71048104E114F1D
:1048100000F004FF55F824202146304600F0FEFE4B
:104820007F2C02D0384600F0F9FE0134802CF1D103
:1048300009480A4C00F0F2FEE3E700BF9B55030075
:10484000AA4E0300BB550300E255030002560300C5
:1048500013560300C649030025560300B14E03005A
:104860002DE9F0412DED028B0024B6B03D2221460A
:10487000054606A8059415F03BFA00220023CDE971
:10488000022321467C2217A80194169415F030FAD1
:104890001BF016F830B16F4C204636B0BDEC028BE1
:1048A000BDE8F0810BF0EEFF04460028F3D16A4921
:1048B000284617F0A7F86849204617F0A3F84022C9
:1048C000014605A816F0E7F9644905AB13F8014B5A
:1048D000BCB916AF8022394605A80BF075FF061E3D
:1048E00018DA5F4805A900F099FE2746594C0BF0ED
:1048F000EBFF1AF0BFFF002FCED03846FEF7C0FB0B
:10490000CAE70A5D02F00302012A08BF203403F857
:10491000014CDBE75049204617F074F80546A0B972
:104920005048514D05A900F079FE741E631C06D154
:104930004E48314600F072FE00274D4CD7E7395DF6
:10494000284600F06BFE013CF0E7042E15DC022E39
:10495000224621460EDC17F035F9019001AD2746BD
:104960003246294605A80BF0D5FE00285ED02968FE
:1049700040483AE017F0A4F9EFE7082E07DC22469A
:10498000214617F03FFA02ADCDE90201E7E73046D4
:10499000FEF738FB074630B39FED378ADFED378AE5
:1049A0004FEA66082B78302B22D16B7803F0DF03B7
:1049B000582B1DD100221146284617F003F903B2E7
:1049C00027F814302449002017F01CF80134A045C2
:1049D000054625D00028E5D129482346324605A9B9
:1049E00000F01CFE82E7274805A900F017FE7DE7CE
:1049F0000021284616F0AAFFB5EEC00AF1EE10FA23
:104A0000BBBFF0EE687A40EE487ABEEEEA0AFDEEF1
:104A1000E77AACBF10EE103A17EE903A1BB2CFE730
:104A2000194805A900F0FAFD3D4699E70D48DFF861
:104A3000388005A900F0F2FDAC19AC4204D10B4856
:104A4000314600F0EBFD78E714F8011D404600F018
:104A5000E5FDF2E7AA4E0300A08E0300958D03004A
:104A600090560300B156030077600300B856030068
:104A7000B14E03005D570300000000450000804771
:104A8000F2560300C5560300375703002DE9F047DF
:104A9000B0B000217C2211A8109115F029F91AF06C
:104AA0000FFF18B1194830B0BDE8F0870BF0EAFEEF
:104AB0000028F7D1DFF85C80DFF85C90DFF85CA0BD
:104AC00004466946A0B20BF0B5FD28B10BF0FCFE20
:104AD0001AF0D0FE0E48E6E76946404610AF00F0F7
:104AE0009DFD8022394668460BF06EFE0546461E47
:104AF000002E05DA2946504600F090FD0134E0E72B
:104B0000B95D484600F08AFD013EF1E7AA4E030078
:104B1000B14E0300B156030077600300B85603009E
:104B2000F0B5C1B068461AF08AFF0A2104A81AF04D
:104B30004DFF134A1349144F0546144800F06EFD0B
:104B400004AC0026AE4211DB039A1149114800F073
:104B500065FD019A10490F4800F060FD029A0F4967
:104B60000C4800F05BFD0E4841B0F0BD6369E2689F
:104B70002146384600F052FD01361834E2E700BF06
:104B8000235803002F580300465803003B580300E6
:104B900056580300615803006C5803007E58030008
:104BA0008C580300052803D0092818BF4FF0FF30A8
:104BB0007047FFF7F7BF40F25233984207D041F6F3
:104BC0009A23984214BF4FF0FF3001207047002015
:104BD000704730B1012841F69A2018BF4FF0FF30DE
:104BE000704740F25230704704381C289ABF024B7D
:104BF00018564FF0FF3070479158030003289ABFB2
:104C0000024B18564FF0FF30704700BFAE580300FC
:104C1000B0F5807F17D009DC402816D0802816D048
:104C2000202814BF4FF0FF3003207047B0F5806F8D
:104C30000FD0B0F5006F0ED0B0F5007F14BF4FF06D
:104C4000FF303F2070471F207047072070470F201C
:104C500070477F207047FF2070471F2815D009DC60
:104C6000072815D00F2815D0032814BF4FF0FF30A8
:104C7000202070477F280FD0FF2810D03F2814BF76
:104C80004FF0FF304FF4007070474FF48070704762
:104C900040207047802070474FF4806070474FF489
:104CA00000607047A0F10903042B28BF4FF0FF30CC
:104CB0007047A0F10903042B28BF4FF0FF30704765
:104CC000032802DC40EAE0707047082818BF4FF064
:104CD000FF307047FFF7F4BF042828BF4FF0FF30C4
:104CE0007047042828BF4FF0FF307047022828BFC4
:104CF0004FF0FF307047022828BF4FF0FF30704759
:104D0000022828BF4FF0FF307047022828BF4FF01D
:104D1000FF307047012802DC40EAE070704703284A
:104D200018BF4FF0FF307047FFF7F4BF7047FEF732
:104D30004BBC002210B504461046A15CA1F1300323
:104D4000092B0BD8A0F13003032A01EB030002F179
:104D5000010218BF0001042AEFD110BDA1F14103E7
:104D6000052B02D8A0F13703EEE7A1F16103052B73
:104D700002D8A0F15703E7E70020EEE72DE9F84F4E
:104D80000A688B6880465D1CD018D35C222B8A464B
:104D9000154440F0DD804C682F460023B91AA1422B
:104DA00080F0D680397822290ED1C3F10103381A58
:104DB000DAF81020184490478346002800F0C88095
:104DC000DFF8989104460FE05C2905D10137B91A44
:104DD0008C4240F2BD8001330137DFE72B785C2B3A
:104DE00012D004F8013B0135BD42F7D300232370F4
:104DF0001023C8E9033BDAF80030FB1A0133CAF884
:104E000008300120BDE8F88F7A1B002A0DDD6B7891
:104E1000752B0AD86D2B12D8622B2BD026D82F2BAE
:104E200029D05C2B27D0222B25D0DAF81430584615
:104E30009847DAF80000281ACAF808008BE06E3BA1
:104E4000072BF2D801A151F823F000BF814E0000DA
:104E50002B4E00002B4E00002B4E0000854E000014
:104E60002B4E0000894E00008D4E0000662BDCD1D9
:104E70000C2300E0082304F8013B02231D44B3E7A0
:104E80000A23F8E70D23F6E70923F4E7052ACCDD2A
:104E9000A81CFFF74EFFA0F55C43B3F5806F0646F4
:104EA000C3D3A0F55843B3F5806F2DD2AB1DFB1AC9
:104EB000052BBADDAB795C2BB7D1EB79752BB4D16F
:104EC00005F10800FFF735FFA0F55C43B3F5806FEF
:104ED000ABD209EA8626C0F30900304300F58036DC
:104EE0000C234FF0F00C042000F1FF3E54FA8EFE2C
:104EF000A645F2B224D1012814BF42EA0C0202F006
:104F00007F0222700444B9E77F280AD9B0F5006F08
:104F10000CD3B0F5803F0ED3B0F5881F85D20623A1
:104F2000DFE706234FF0000C0120DDE706234FF0FA
:104F3000C00C0220D8E706234FF0E00C0320D3E793
:104F400002F03F0262F07F010EF80119B609CFE7C7
:104F5000002D7FF46EAF002054E700BF00FC0F006F
:104F600010B540B1016871B142688368934206D2BE
:104F7000CC5C202C00D910BD01338360F5E7FAD159
:104F8000013A8260F7E70846F5E70000F8B50D46FC
:104F90000446002834D0002931D08468FAB9194E6B
:104FA00074B3236AC3B1AB4221D005F1FF3C013B8E
:104FB0001CF8011F8A5D02F00302012A13F8012F79
:104FC000B05C00F003000F4608BF01F12007012884
:104FD00008BF203297420FD02468E1E724687CB1F3
:104FE000216A21B1284615F028FE0028F6D1236A4F
:104FF000002B08BF002403E00029D9D1F7E70C46B5
:105000002046F8BD958D030010B50346282098472B
:10501000044618B12822002114F06AFE204610BD73
:1050200070B5104D044604B970BDE3682668D90513
:1050300003D4A06868B9206988B9E3689B0503D4E4
:10504000206A08B16B68984720466B6898473446D9
:10505000E9E7FFF7E5FFE368DA05ECD5EDE76B6814
:105060009847EAE7740000202DE9F047064692B021
:105070000C4609B9002023E00F68002FFAD08D6894
:10508000D1F8048005F10409C1450BD890490422E8
:10509000781915F0ECFD28B90423F360C4F80890E2
:1050A00001200DE005F1050AD0450CD38949052200
:1050B000781915F0DCFD30B90120F060C4F808A0C3
:1050C00012B0BDE8F087C1450CD883490422781995
:1050D00015F0CDFD30B902230120F3607061C4F8F2
:1050E0000890EDE74545C5D27B5D222B07EB050017
:1050F00006D12146304612B0BDE8F047FFF73EBE6C
:105100002D2B03D0A3F13002092A62D8002302AA72
:105110000193A8EB050517464FF02E0E10F8011B62
:10512000392910D82A291BD9A1F12B0CBCF10E0F5B
:1051300016D8DFE80CF00D150D3B150D0D0D0D0DFE
:105140000D0D0D0D0D0001F0DF0CBCF1450F07D169
:10515000117001333F2B02F1010201D0AB42DDD1CE
:1051600048336B44002503F8405C01A9384616F02B
:10517000E1FBDDF804A0BA4559EC108B3FF47AAF9F
:1051800086ED060B50A3D3E9002310EE100A494622
:105190002EF0A0FD68B16FF000437361AAEB070A1F
:1051A000A76808235744F360A76079E782F800E016
:1051B000CFE74A4B0022404649462EF081FD10B110
:1051C0004FF00043E9E7404649462EF0ADFD7061DF
:1051D000E4E75B2B51D1E368B3F57A7FBFF44AAFC4
:1051E0000133E3607B5D5B2B7FF444AF0135A56049
:1051F0002046FFF7B5FED4E9012393425ED2226830
:10520000D25C5D2A0AD10027E368013BE3602023DA
:10521000C6E90273A3680133A36041E7013B00259F
:10522000A3602F462069FFF7EFFEA8460546002839
:1052300000F09B80FFB1C8F80000C0F80480A368AC
:105240000133A3602046FFF78BFE21462846FFF777
:105250000BFF002800F08C802046FFF781FED4E988
:105260000123934280F084802268D35C2C2BD9D018
:105270005D2B7DD1C8E70746E1E77B2B7FF4FAAED3
:10528000E368B3F57A7FBFF4F5AE0133E3607B5D8D
:105290007B2B7FF4EFAE0135A5602046FFF760FE63
:1052A000D4E90123934209D22268D25C7D2A17D126
:1052B0000027E368013BE3604023A9E7013BA360CB
:1052C000D8E600BFAFF300800000C0FFFFFFDF4162
:1052D000B2580300B7580300BD5803000000E0C1F6
:1052E0000025013BA3602F46A8462069FFF78CFEEE
:1052F000A9460546002838D0AFB3C9F80000C0F869
:105300000490A3680133A3602046FFF729FE2146DD
:105310002846FFF733FD58B32046FFF721FE2B69DF
:105320002B62D4E901239342C5F8108020D2226871
:10533000D25C3A2A1CD10133A3602046FFF710FE4D
:1053400021462846FFF790FE90B12046FFF708FE61
:10535000D4E9012393420BD22268D35C2C2BC4D016
:105360007D2B05D1A5E70746CBE7002F3FF482AEA2
:105370003846FFF755FE7DE62DE9F043304F89B002
:1053800005460E46904600211C2201A84FF0000958
:1053900014F0AEFCC7E90099002D48D028460195CD
:1053A00015F05DFC274B0130029093E8070008AB35
:1053B00003E90700FFF728FE044668B3019870B1BF
:1053C000039B5BB9029B042B06D91F49032215F0EE
:1053D0004EFC08B90323039301A800E04846FFF7F9
:1053E000BFFD01462046FFF73FFE90B1B8F1000F28
:1053F00004D1F6B9204609B0BDE8F08301A8FFF753
:10540000AFFDDDE90223934203D2019AD35C002B66
:10541000EFD02046FFF704FEDDE902329A420DD3B9
:1054200003B1013B0EB1EA183260C7E90053002412
:10543000E0E7019B039A13443360DBE71346F1E78F
:10544000BC97002074000020D458030000221146AD
:10545000FFF792BF0022FFF799BD000008B528B9F9
:10546000094B0A4A16210A4814F0A8FB19B9094B3E
:10547000064A1721F7E7828000220160C28082601D
:105480008281C38108BD00BFD85803009D59030025
:10549000DD5803003159030010B528B90D4B0E4AF1
:1054A0000E482C2114F08AFB82884489C388D31AC1
:1054B000121B8489121B91429BB209DCC2899A4259
:1054C00082BF83810023C380C3880068184410BD55
:1054D0000020FCE7D858030087590300DD5803007B
:1054E00010B528B9084B094A0948412114F066FB58
:1054F000C38882880B44B3FBF2F402FB1433C380ED
:1055000043891944418110BDD858030072590300E2
:10551000DD58030038B50D46044628B9084B094A42
:105520000948482114F04AFB0121FFF7B5FF28B1D3
:10553000057001212046FFF7D3FF012038BD00BFD1
:10554000D85803005F590300DD5803002DE9F041EE
:105550000B46044628B91D4B1D4A67211D4814F00F
:105560002DFB19B91C4B1A4A6821F7E745890DB381
:10557000954228BF154686890289B0F804800168E3
:105580001644B6B2A8EB0607BFB2BD42114414D907
:1055900018463A4614F09EFB2E442168EA1B384414
:1055A00014F098FBA6EB08060023A38126816389EB
:1055B0005B1B63812846BDE8F08118462A4614F03B
:1055C00089FB23892B442381F1E700BFD8580300CE
:1055D0003F590300DD5803003A59030008B528B9C4
:1055E0000A4B0B4A5A210B4814F0E8FA19B90A4B36
:1055F000074A5B21F7E7438933B10122FFF7A6FF92
:10560000003818BF012008BD1846FCE7D858030031
:105610004E590300DD580300307E03000FB437B548
:10562000114C06ABD4F8000253F8042B019340212F
:1056300004EB801016F01CFCD4F8005204EB851526
:10564000284615F00CFB094B01465B682846984735
:10565000D4F80032013303F00703C4F8003203B07A
:10566000BDE8304004B07047C49700206C000020B3
:10567000014B1870704700BFC8990020014B187883
:10568000704700BFC899002008B51AF0F3F801462A
:1056900030B10948FFF7C2FF07210120FDF7CAF822
:1056A00006481AF04DFC00F04FFC1AF0F1F8BDE886
:1056B0000840FDF73BBB00BFAA590300CC9900206E
:1056C00030B585B000F08EFB014638B10390184824
:1056D000FFF7A4FF03990120FDF7ACF81AF01DFBBA
:1056E000144C606018B938210120FDF7A3F84FF47D
:1056F0000060FDF787FC01254FF40063CDE900351C
:10570000A06003460C4A0D4800211AF04BFB2060B4
:1057100018B938212846FDF78DF800F0FDFB20B1BF
:1057200005B0BDE83040FFF7AFBF05B030BD00BFEA
:10573000D1590300CC990020FC590300C558000042
:105740002DE9F04F2DED028B83B008EE103A0E9E3E
:1057500083460F461546002E40F0898006294FF4F7
:10576000967084BF01260627FDF74CFC0446002CEA
:1057700000F08D80F8EEC87ADFF8449117EE900AB9
:105780002DF0CAFF4CA3D3E900232EF01DF82EF014
:10579000CBFA414945F65A228246204615F0A0F937
:1057A000204615F05CFA3D49204415F050FA4FF0C0
:1057B0000008204615F053FA47455FD81EB1384916
:1057C000204415F044FA204615F049FA6B7801930D
:1057D000AB7800930138EB782A793249204415F0F0
:1057E0007FF9204615F03BFA2F495246204415F028
:1057F00077F9204615F033FA10990F9B642249423D
:105800005B4291FBF2F602FB161193FBF2F501915C
:1058100002FB1533109991FBF2F1204400910F998E
:1058200091FBF2F2214915F05BF9204615F017FAC9
:105830001F49204415F00BFA204615F010FA1D49B7
:10584000821FA01C15F04CF97B23A371204615F094
:1058500006FA01462046FDF785FE05462046FDF77F
:105860000FFC284603B0BDEC028BBDE8F08F4FF46F
:105870001670FDF7C7FB0026044678E71BF80820E2
:105880004946204415F02CF908F1010891E7472515
:10589000E7E700BFAFF3008056490300055A030055
:1058A000155A0300185A0300385A03003F5A0300E0
:1058B000F25E0300584903000000000084D7F73F60
:1058C0000F5A03002DE9F0418AB000F079FA04463E
:1058D00000B32F4E0027F760FDF7B6FC05463846AB
:1058E0002CF06AFD2846FDF7B4FCF36853B97068E4
:1058F0004FF0FF3209A91AF039FA0028F5D1099BB7
:10590000012B0BD10223F360F368022B3CD00AB0C9
:10591000BDE8F0810520FDF7D1FCD6E7FDF794FC4A
:10592000B4F88079B4F882597F1BFDF792FC3B07ED
:1059300027D098226A4304EB0208A15CB8F994309E
:105940000791971C813222440692059300F044FA95
:10595000D8F890300293D8F88C3007992744013555
:10596000CDE9000305F00F05DDE905323846FFF704
:10597000E7FEFDF769FCA4F88259FDF76AFCFDF724
:1059800089FD1AF059FAB0E70120FDF797FCBBE753
:10599000CC99002008B5074B1A6852B1586802210B
:1059A0001AF0DBF928B1BDE808403B210120FCF7E3
:1059B00041BF08BDCC990020024B1868003818BFC1
:1059C00001207047CC99002007B5022000F0FEF9B5
:1059D000044B019301A823F09DFB034803B05DF83D
:1059E00004FB00BF30030000B14E03002DE9374C2B
:1059F0004FF49670FDF706FB8246002875D0FDF740
:105A000023FC019000F0DCF945F65A22834639491F
:105A1000504615F065F838490AF1060015F017F9F7
:105A2000BBF8882935490AF1160015F059F800F13C
:105A30001604BBF88A2932490AEB040015F050F825
:105A400004449BF88C292F490AEB040015F048F810
:105A50000444BBF884292C490AEB040015F040F8F3
:105A60000444BBF8862929490AEB040015F038F8EC
:105A70002518BBF88E2926490AEB050015F030F8E9
:105A80000544BBF8902923490AEB050015F028F8D6
:105A900005449BF8922920490AEB050015F020F8EF
:105AA0000544DBF89C291D490AEB050015F018F8A0
:105AB00005441B49AA1F0AF1020015F011F87B22C8
:105AC0008AF80620504615F0CAF81649504415F0D9
:105AD000BEF8154AA91C5268504690475046FDF73B
:105AE000CFFA019B1846FDF7B4FB104803B0BDE8A0
:105AF000308C00BF564903007C5A03008D5A0300C6
:105B00009A5A0300A75A0300B45A0300C05A03006C
:105B1000CC5A0300DA5A0300E65A0300F25A030093
:105B200058490300C16003006C000020B14E03001F
:105B300008B5054B186800F684102CF0EDFDBDE8A3
:105B4000084000202CF038BCE0990020FFF7F0BF9F
:105B50002DE9F04F904B2DED068BD3F800A089B0C6
:105B60000546BAF1000F00F01281BAF880B90BF1C6
:105B700001030193019ABAF882399B1A1B0700F0BE
:105B8000ED80982404FB0BF404F18100FF215044C4
:105B90002CF0D6FB2CF078FD0AEB04032A68A3F85E
:105BA0009400C3F88820DAF89C390133CAF89C398C
:105BB0002A7A12F0020200F0DF8000232AF8043073
:105BC000FDF7B6FB04462CF061FA744B9FED747A36
:105BD000DFED747A20F01000984208BFF0EE477AAB
:105BE000002302A8F0EE678A8DF81D302CF094FE99
:105BF00063799FED6D7ADFED6D7A9DF81C00082BBF
:105C0000039B94BF17EE904A17EE104ADDED027A1F
:105C10009B08B8EE679A07EE903A049B9B08B8EE93
:105C2000E7AA07EE903A059B9B08B8EEE78A07EED5
:105C3000903AF8EEE79ADDED067A29EE099AF8EE49
:105C4000677A00EB4000C7EE897A4500EDB217EEA7
:105C5000900A2DF061FD41EC100B19F045F920463A
:105C600059EC108B2DF058FD064628460F462DF0B6
:105C700041FD4F4B04460D460022404649462DF05B
:105C8000A3FD32463B462DF0E9FB28EE088A80460C
:105C90000AEE0A8A894618EE900A2DF03DFD09EEBB
:105CA000A98A02460B46404649462DF0D7FB2246BC
:105CB0002B462DF0D3FB2EF07FF8C8EE097A08EEC4
:105CC000900A17EE900A2DF027FD41EC100B19F009
:105CD0000BF9374B51EC100B00222DF075FD3246BD
:105CE0003B462DF0BBFB22462B462DF0B7FB2EF09A
:105CF00063F89FED307AF4EEC78AF1EE10FA07EE02
:105D0000900A04D4F5EEC08AF1EE10FA01DDDFED61
:105D10002A8AF4EEC77AF1EE10FA04D4F5EEC07ACE
:105D2000F1EE10FA01DDDFED247A9FED247A68EEC2
:105D3000878A67EE877AFDEEE88AFDEEE77A982398
:105D400003FB0BA3C3ED238AC3ED247AFFF734FED4
:105D500020B1019B03F00F03AAF88039FFF71AFE68
:105D60000AF684102CF0D8FC002009B0BDEC068B9C
:105D7000BDE8F04F2CF020BBE9887F2928BF7F21A8
:105D8000A01C2AF8041050442CF046FC18E709B077
:105D9000BDEC068BBDE8F08FE09900200203CADE5F
:105DA000CDCC7C4233B34C426666F3C29A99E3C2CF
:105DB000000024400000F0C2000000000000C842C3
:105DC000014B1868704700BFE0990020014B186034
:105DD000704700BFDC990020014B1868704700BF76
:105DE000DC99002070B58CB019F06AFD30B1072144
:105DF0000120FCF71FFD07200CB070BD3E4C23684E
:105E000023B94FF41A60FDF7FDF8206020680028E0
:105E10006FD04FF41A62002113F06AFFFDF788FA81
:105E2000054619F01FFD06460028E0D1FDF70CFAE3
:105E3000044630462CF05CF9064618B12046FDF7C2
:105E400008FAD8E719F042FC2CF020F91AF0A6F86D
:105E500001283ED12948FFF7E1FB28462CF086F9BE
:105E600018B107210120FCF7E5FC00202CF0C4FB51
:105E700000202CF0ABFA002108462CF081FB3022E8
:105E80000021684613F034FF03202CF06BFC032044
:105E90002CF01EF91A4B01931A4B029368461A4BC9
:105EA00003932CF0DBFA0222002118482CF0F6FABA
:105EB00001202CF0FDFB01202CF01EFCFDF734FA34
:105EC00090F869022CF062FC2046FDF7C2F9002030
:105ED00092E7022802D10E48AE73BCE72CF0D6F848
:105EE00001460C48FFF79AFB2046FDF7B2F9FF2068
:105EF00082E7482080E700BFE0990020465C03006D
:105F0000515B0000315B00004D5B000080D003243A
:105F10006B5C0300985C030010B519F091FC04461B
:105F200048B101460648FFF779FB01200721FCF73D
:105F300081FC072010BD0348FFF770FB2046F9E7FE
:105F4000BB5C0300F15C030010B5044C206818B181
:105F5000FDF796F80023236010BD00BFE0990020F4
:105F600010B54268007E13460021CCB2A04200D991
:105F70000BB9104610BD1C7D640701F1010101D071
:105F80001B68F2E71A46F4E708B5FDF789F94FF404
:105F90007A7200232DF060FF08BD00002DE9F04368
:105FA0005F4BDFF8CC8100221A700B68C8F8003014
:105FB00087B00D460746B0B1D1F820422402A4B202
:105FC0002046FDF71FF8DFF8AC91564EC9F80000E7
:105FD00060B9554B55485B6811219847472101200E
:105FE000FCF728FC6CE04FF48074E9E73046A9F830
:105FF000044001F065F8014630B14B4B4C485B68FA
:10600000142198470121EAE7102202A813F070FE3C
:10601000306802A901F040FD10B9464B059A1A609C
:10602000E989306801F0E4FC00230093424A434BC5
:1060300031684348CDF8049002F0CCFC20B13A4BD3
:1060400040485B681721DCE73D4802F0F4FC20B1D2
:10605000354B3D485B682021D3E705F10804012258
:106060003068214601F03CFA024620B12E4B3748F9
:106070005B682821C5E7D8F80010314802AB02F070
:10608000E1FC20B1284B32485B681F21B9E7DFF8FB
:10609000D08003992A48C8F80010224601F066FA19
:1060A000044620B1204B2B485B682221A9E73FB171
:1060B000DFF88C9005F1E007D5F820329C420BDB2D
:1060C000306801F057FCB0B1174B23485B681321CF
:1060D00007B0BDE8F04318473A46D8F800104846E4
:1060E00002F0D2FC283720B10F4B1C485B682021FE
:1060F00087E70134E0E71A4B1148196802F0A9FC60
:1061000020B1094B17485B682021E1E7FFF73CFF0E
:10611000154B1860154B01221A7007B0BDE8F083CB
:10612000149A00201C9A00206C000020155D0300CA
:10613000275D0300189A00209D6100003C5D03006C
:10614000E4990020445D03005C5D03007D5D030075
:10615000A65D0300C65D03000A5E0300E95D03005F
:10616000109A00201E5E0300009A0020159A00205D
:1061700080000020049A002008B5FDF7DDF8BDE896
:10618000084001460120FFF709BF08B5FDF7D4F824
:10619000BDE8084001460020FFF700BF2DE9F04FA1
:1061A0002DED028BA1B001280291144607D00828DA
:1061B00000F0928321B0BDEC028BBDE8F08FFDF7BB
:1061C000BBF8029B04905B680393002B40F39F8312
:1061D000FFF7DAFEB24B039E1860B24B00221A7032
:1061E000731E072BE6D8029B06AF3A46002503F143
:1061F0000A01039BAB42C9BF6B010023CB5CB3FA1E
:1062000083F3C8BF5B0902F8013B6B1C9E4240F060
:10621000888220220DEB0200002113F069FD029B11
:1062200018688269002A40F07E82402143689E4AB5
:106230009E4CDFF8A0B20DEB010014F01DFC63686A
:10624000014610A898479A4B9A4A1B6840210DEBCB
:10625000010014F011FC6368102110A898479649BA
:1062600010A814F0F4FC6368082110A89847DDF822
:106270000880924A08EB4616C146BA461AF8013B16
:106280000BB1B9F8083040210DEB010014F0F4FB1C
:1062900009F120096368014610A89847B145636871
:1062A00040F0748203218648DFF834A2DFF824929C
:1062B0009847844910A814F0CAFC6368062110A806
:1062C000984717F8013B0BB1D8F8103040215246DF
:1062D0000DEB010014F0D0FB08F1200863680146C3
:1062E00010A898474645636840F0558203217448DA
:1062F000DFF8B891DFF8DCA1DFF8C0B19847724948
:1063000010A814F0A4FC6368072110A8984708AEF1
:10631000B046002758F8043B002B00F028831846AD
:10632000FFF71EFE034637B1D9F80420059301217B
:1063300050469047059B002B40F0338200234021BC
:106340005A460DEB010014F097FB6368014610A854
:106350009847BD4207F1010340F021826368584825
:10636000DFF880919FED598ADFF87CA103219847DF
:10637000574910A814F06BFC6368052110A89847D2
:10638000B046002758F804BBBBF1000F00F0E682CE
:106390005846FFF7E5FD834627B1444B4D485B68FF
:1063A00001219847BBF1000F00F0DB82BBF80630FB
:1063B00007EE903AF8EEE77A67EE887A17EE900AE1
:1063C0002DF0AAF9CDE9000140210DEB0100524664
:1063D00014F052FB0146636810A89847BD4207F1CC
:1063E000010340F0E18163683548DFF8C090DFF8D1
:1063F000E4A0DFF8F8B003219847374910A814F05B
:1064000026FC6368072110A89847B046002758F873
:10641000043B002B00F09E821846FFF7A1FD0346C7
:1064200037B1D9F804200593012150469047059BC8
:10643000002B40F0BD81002340215A460DEB0100A6
:1064400014F01AFB6368014610A89847BD4207F193
:10645000010340F0AB8163681948DFF888909FED35
:106460001B8ADFF884A0032198471C4910A814F068
:10647000EEFB6368072110A89847B046002758F83C
:1064800004BBBBF1000F00F05C825846FFF768FDCB
:1064900083466FB3054B0F485B680121984727E09F
:1064A000009A0020149A0020475E03006C00002030
:1064B000189A0020515E03005F5E0300EF4803005E
:1064C000B45E0300685E0300735E03000000803B5F
:1064D0008D5E0300365A0300805E03008B5E03006E
:1064E0006F5E0300734A03007B5E0300885E030057
:1064F000BBF1000F00F02882BBF80A3007EE903A9B
:10650000F8EEE77A67EE887A17EE900A2DF004F934
:10651000CDE9000140210DEB0100524614F0ACFA28
:106520000146636810A89847BD4207F1010340F097
:1065300041816368A848DFF8C8929FEDA88ADFF818
:10654000C4A203219847A64910A814F080FB6368F1
:10655000062110A89847B046002758F804BBBBF1A5
:10656000000F00F0E5815846FFF7FAFC834627B19B
:106570009C4B9D485B6801219847BBF1000F00F0E0
:10658000DA81BBF80C3007EE903AF8EEE77A67EE66
:10659000887A17EE900A2DF0BFF8CDE9000140216E
:1065A0000DEB0100524614F067FA0146636810A82B
:1065B0009847BD4207F1010340F0FE8063688648BA
:1065C000DFF82092DFF820A2DFF83CB203219847E1
:1065D000864910A814F03BFB6368072110A8984770
:1065E000B046002758F8043B002B00F09D81184668
:1065F000FFF7B6FC034637B1D9F804200593012113
:1066000050469047059B002B40F0DA800023402144
:106610005A460DEB010014F02FFA6368014610A8EA
:106620009847BD4207F1010300F3C88063686A48D8
:10663000DFF8CC819FED6E8ADFF8C891032198477F
:106640006C4910A814F003FB6368072110A8984751
:10665000002756F804ABBAF1000F00F05C815046F9
:10666000FFF77EFC824627B15E4B5F485B680121E5
:106670009847BAF1000F00F05181BAF8103007EED8
:10668000903AF8EEE77A67EE887A17EE900A2DF0E6
:1066900043F8CDE9000140210DEB01004A4614F01A
:1066A000EBF90146636810A89847BD4207F1010362
:1066B00000F3888063684848DFF828810321984701
:1066C0000026039BB342D7BF049B029B03F1E40265
:1066D0002823D5BF734303EB4613D35A1B8908AA5B
:1066E00052F8261059B1CA68887E14460021CFB2EC
:1066F000B84201D9002C67D1002A40F0898040219E
:106700000DEB01003C4A14F0B7F9D8F8043001460B
:1067100010A89847B54206F101037FF74BAD1E461E
:10672000CFE71D4665E5D2E900C3029ADFF8DCE059
:10673000002102F1080861453FF477AD002B3FF4DA
:1067400074ADDA6902EA0E02B2F5807F15D11A7FC4
:106750009AB13C46002214F8019BB9F1000F0FD00A
:106760004FEA421938F809A0B3F81490CA4507D186
:1067700020AC04EB820242F8603C1B680131DAE78E
:10678000954202F10109F8D04A46E4E70121584652
:1067900098471A4A72E501214846984791E51F46F5
:1067A000B8E5B3F90430CAE51F46EBE51F462EE60F
:1067B0001B8941E61F4662E61F46CEE61F4611E7EB
:1067C000DB8924E71F4644E727797F0701F10101B0
:1067D0001FD024688BE700BFB45E03000000803C3C
:1067E000935E03006C000020365A03009A5E03009B
:1067F0000000803BA25E0300AA5E0300EF48030096
:10680000734A03007B5E0300885E030000FFFF0005
:1068100014464021584ADFF878B1DFF878A10DEB33
:10682000010014F029F9D8F80430014610A898475F
:10683000B4F808900027B9457FF76CAFA17AE068FB
:1068400007FB01F2052900EB02033DD9997893F883
:1068500001C0825C090441EA0C21080242EA0102FB
:1068600059791879DB784FEA014141EA002148BFA4
:1068700042F07F420B43090201D543F07F4307EE0C
:10688000103A07EE902AB8EEC70AF8EEE77A20EE43
:10689000000A07EEA70A18F069FB09F1FF32FDEEC6
:1068A000C07A97424FF0400117EE903AB4BF52467B
:1068B0005A460DEB010014F0DFF8D8F80430014619
:1068C00010A898470137B6E7032993BF0023825EDB
:1068D000B3F902301A46D2E7029B029A1B7951792A
:1068E0002068032B96BF254A254A52F82320254BC2
:1068F00053F82130244914F0F3F8244B01465B6827
:10690000206821B0BDEC028BBDE8F04F1847049B16
:10691000D3F8206264E4002F7FF4A6AE414610A8AD
:1069200014F095F90121BDE6002F7FF465AE6DE608
:10693000002F7FF41DAE494610A814F088F90121FC
:1069400034E6002F7FF4A6AD494610A814F07FF975
:106950000121E6E5002F7FF464AD6CE5002F7FF4A4
:106960001CAD494610A814F072F9012133E5002F3F
:106970007FF4DAACE2E400BFB85E0300FC6B030016
:106980003F5E0300FC670300C65E03006C0000204E
:10699000E64C0300C25E03002DE9F0411E4D1F4F7F
:1069A0002B78DBB11E4C01232370FFF7EDFA4FF07B
:1069B00000081C4B85F800801B4D1860386800F0FB
:1069C000EAFF2968194802F04DF8064658B1184BFD
:1069D00018485B681F21984784F800803868BDE834
:1069E000F04100F0BBBF2968104802F044F80546AA
:1069F00030B10F4B10485B68212198472670EDE7B6
:106A00000A4802F013F8386800F0CCFB0B4B18680A
:106A1000FCF736FB2570E1E7159A00201C9A002050
:106A2000149A00200C9A0020109A0020E49900206B
:106A30006C000020F65E0300165F0300049A00203D
:106A400010B50446FCF778FC002C43D00023036209
:106A5000C38140F2011303810123C0F82032A0F862
:106A6000E4302A230360002380F82532037380F882
:106A7000403080F8523040F60923A0F84C30032310
:106A8000022280F84E3090F8653080F850208272F3
:106A90000122134380F8653090F8433080F8442099
:106AA0004FF4166101634FF0C80C192143F0030342
:106AB000C0E90D1C80F84330A4B1782380F8B820D9
:106AC000C0F8BC305230012300F8013F0133092BDC
:106AD000FAD110BD012303620482C3810481C0F88E
:106AE0002042BEE780F8B840C0F8BC40EAE70000AA
:106AF0002DE9F04FBBB005460E46FCF71DFC94494E
:106B0000DFF8A482DFF8A492DFF8A4A204462846A6
:106B100014F078FF002705461A2239460BA8CDE964
:106B2000097713F0E5F80DB9012652E009AA4146AC
:106B3000284613F0F5FF012819D10998FEF732F81D
:106B400001300BD00998FEF72DF884F84C008049ED
:106B5000002014F057FF01370546E4E7099A7D4904
:106B60001AA813F0BDFF7C4B01465B682EE009AB11
:106B70000AAA4946284613F0D3FF022835D19DF8CA
:106B80002830422B29D1099B0022033B84F868203E
:106B9000032B14D8DFE803F002090B11012384F85A
:106BA0004E30022384F85030D1E70323F7E7012366
:106BB00084F84E3084F85020C9E70323F8E767498A
:106BC0001AA814F044F8644B5B6813211AA898477C
:106BD000002630463BB0BDE8F08F61491AA814F09A
:106BE00036F85D4B0F215B68F0E709AA514628464D
:106BF00013F096FF01280DD1099BB3F5166F01D351
:106C00002363A4E757491AA814F021F8524B202116
:106C10005B68DBE7544909AA284613F081FF012885
:106C20000BD1099D0DB1A56391E750491AA814F045
:106C30000EF8494B1F215B68C8E74D4909AA284651
:106C400013F06EFF01280DD1099B5A1EFE2A01D8B0
:106C500063637CE747491AA813F0F9FF3E4B2221F2
:106C60005B68B3E744490AAA284613F059FF012894
:106C700083461FD141490AA813F0DFFF10B984F8F9
:106C80000AB064E73E490AA813F0D7FF10B90223FF
:106C9000A3725CE73B490AA813F0CFFF08B90323AE
:106CA000F6E739490AA813F0C8FF08B90423EFE74B
:106CB0003649BBE7364909AA284613F031FF0128B7
:106CC0000BD1099D0DB1256041E732491AA813F097
:106CD000BEFF214B16215B6878E719AB059318AB13
:106CE000049317AB039316AB029315AB019314AB4C
:106CF0000093294913AB12AA284613F011FF082864
:106D00000BD112AB04F1520204F15A0153F8040BF7
:106D100002F8010F9142F9D119E72049284613F0F2
:106D20008CFF10B90123237311E71D49284613F086
:106D300084FF18B9012384F8403008E7194909AAEB
:106D4000284613F0EDFE012834D1099BE381FEE6CD
:106D50004A4B0300554B03006C000020475F0300C3
:106D60005B5F0300735F0300945F03009D5F03009C
:106D7000BD5F0300C65F0300E95F0300F05F03002F
:106D8000F65F0300FC5F0300066003001060030071
:106D900030600300366003004D6003007C60030038
:106DA00082600300866003004D4B0300385F0300E0
:106DB0006B5F03004A490AAA284613F0B1FE012876
:106DC0005BD19DF82830303B0025092BC4F82052B8
:106DD00012D80AA866B112F00FFFD4F820325A1C5C
:106DE000C4F82022282202FB0343A3F8E400AEE605
:106DF00012F002FF2082AAE6002E3AD139490AAAEF
:106E00001AA813F06DFE384B01465B681AA8984724
:106E1000DFE60570187868B9531C1A78002A3FF429
:106E200096AE18465946079313F048FF079B024653
:106E30000028EED1D4F82002072808DD2B490822CB
:106E40001AA813F04DFE284B27215B68BEE61846B2
:106E5000079212F0D1FED4F820322822591C02FBEE
:106E60000343079AC4F82012A3F8E400002AD3D100
:106E70006DE6DFF890B00AABCFE71D4909AA2846B6
:106E800013F04EFE01280CD10998FDF70BFF0130DD
:106E900005D00998FDF706FF84F84D0057E615491F
:106EA000C4E6154909AA284613F03AFE012810D174
:106EB0000998FDF780FE013003D0099B84F8523019
:106EC00045E60E491AA813F0C2FE074B19215B686C
:106ED0007CE6FBB2002B3FF43AAE09492A463FE676
:106EE0008E600300C46003006C0000209B60030000
:106EF000884B0300E5600300D34B030005610300EA
:106F00001F61030097600300F8B506460D4681F047
:106F10000107FCF711FA04469EB12D21304613F00B
:106F20007FFE70B12846FFF78BFD29463046FFF7FC
:106F3000DFFD28B1012384F8253284F82472012072
:106F4000F8BD94F82532022B03D194F82432BB42C9
:106F5000F3D02846FFF774FDEFE70000114B1B78D4
:106F600013B5E3B1104C2378CBB9FFF70DF80F4BF5
:106F70001B68C01A43F69823984210D90C4B0D4851
:106F80005B682221984701232370FEF7FDFF0A4B1F
:106F90001860FCF71BFC019001A822F0BBF802B0BE
:106FA00010BD00BF159A0020149A0020009A0020FE
:106FB0006C000020356103000C9A002008B50C4BD2
:106FC0001B78A3B1FEF7E0FF0A4B1B68C01A44F61A
:106FD000206398420BD9084B08485B6821219847E9
:106FE0006420FCF76BF9BDE80840FBF79DBD08BDC8
:106FF000149A00200C9A00206C00002058610300B5
:1070000010B5FCF799F990F82532044633B990F899
:107010002402B0FA80F04009FFF712FD022384F841
:10702000253210BD07B50121FFF76EFF50B100F00A
:10703000C3F8054B019301A822F06CF8034803B094
:107040005DF804FB0248FAE74C030000B14E030070
:10705000AA4E030007B50021FFF756FF50B100F01C
:10706000ABF8054B019301A822F054F8034803B094
:107070005DF804FB0248FAE768030000B14E030024
:10708000AA4E030000B5034693B061B9094A4021F6
:1070900002A813F0F1FC084B01465B6802A8984770
:1070A00013B05DF804FB0091044A402102A813F0DC
:1070B000E3FCF0E7F37103006C00002001720300B1
:1070C000F0B52F4F2F4D93B00646012418F0F8FB72
:1070D000034688B13A460094402102A813F0CCFC44
:1070E0006B68014602A8984718F0C4FB4FF47A7009
:1070F000FCF7E4F80134E9E701462348FFF7C2FF53
:10710000224809F0BFFB0546044601462048FFF728
:10711000B9FF85BB02A809F089FE9DF8083033B19C
:107120001C488DF80850012202A909F0F3FA02A8C0
:1071300009F034FEBDF80830102B07D1282316487B
:10714000ADF80830022202A909F0E4FA03F0D6F8FB
:10715000044601461148FFF795FF54B9304600F048
:10716000EFFB044601460E48FFF78CFF2CB102F0FE
:10717000FDFC09F0A9FB18F07DFB204613B0F0BD23
:10718000177203006C00002044720300000000200E
:107190005372030062720300737203008D72030066
:1071A0009772030008B502F0E1FC09F08DFBBDE821
:1071B000084018F05FBB00002DE9F0434FF4006079
:1071C00087B0FBF71FFF044638B9A44BA4485B689F
:1071D000122107B0BDE8F0431847FCF7ADF8A1490C
:1071E0000546204613F033FD204613F038FD2B688A
:1071F0009D4AC0F50061204413F03EFC204613F088
:107200002EFD9A4A95F84C30C0F50061204413F0E9
:1072100033FC204613F023FD6A7A0146C1F5006174
:107220002018002A00F0C580914B924E012A08BF19
:107230003346914A13F020FC204613F010FDAB7A40
:10724000013BDBB2032B96BF8C4A894B52F82330AB
:107250008B4A0146C1F50061201813F00DFC204651
:1072600013F0FDFC2B6B874AC0F50061204413F03E
:1072700003FC204613F0F3FCAB6B834AC0F50061BE
:10728000204413F0F9FB204613F0E9FC7F4A6B6BB6
:10729000C0F50061204413F0EFFB204613F0DFFC43
:1072A0002A7B0146C1F500612018002A00F0838086
:1072B0006F4B774E012A08BF3346764A13F0DCFB4A
:1072C000204613F0CCFC95F84010734A734B00290C
:1072D00008BF1346C0F50061714A204413F0CCFB8F
:1072E000204613F0BCFC95F84E200146012A2044AC
:1072F000C1F5006161D05E4B6A4E032A08BF334678
:10730000694A13F0B9FB204613F0A9FC95F85030F8
:10731000664AC0F50061204413F0AEFB204613F02E
:107320009EFC95F84D30624AC0F50061204413F090
:10733000A3FB204613F093FC95F8582095F85330A2
:10734000049295F85720039295F85620029295F8EA
:107350005520019295F854200092C0F50061554ADD
:10736000204413F089FB204613F079FC95F85A204D
:1073700095F859300092C0F500614F4A204413F04F
:107380007BFB204613F06BFCEB894C4AC0F5006197
:10739000204413F071FB2B7A012B57D0204613F0B9
:1073A0005EFC2B8A464AC0F50061204413F064FB62
:1073B00032E0444B3DE7444B7FE7444BA0E72823B2
:1073C00005F1E4027343D35A00933A46334613F06F
:1073D00053FBD5F82032013BB34208DD204613F0C1
:1073E0003EFC4246C0F50061204413F045FB2046B8
:1073F00013F035FC4A46C0F50061204413F03CFB15
:107400000136204613F02BFCD5F820320146B3425A
:107410002044C1F50061D2DC204613F020FC2C4A48
:10742000C0F50061204413F027FB204613F017FC41
:107430000A4B01465B68204698472046FBF720FE32
:10744000642007B0BDE8F043FBF738BF214FDFF8F9
:107450008880DFF888900026D3E700BF6C0000200A
:10746000E4720300F7720300147303002773030030
:107470003F5E0300AD7203003D7303000C75030013
:10748000507303006B73030088730300A67303003B
:10749000BF720300BB730300D3720300CB720300FF
:1074A000D2730300E0720300E6730300FB73030072
:1074B00009740300247403005674030070740300FD
:1074C000AA740300A3720300B7720300DC72030006
:1074D000275603008E740300365A0300C160030070
:1074E0007FB50C466946164600F0D6FA054690BBB5
:1074F000029818F053FD012809D002281AD0174B22
:1075000002995B68164898476FF011050FE0154B1C
:10751000A3664FF6FF736066A4F86C3084F86E3093
:107520002EB194F85D3043F00A0384F85D302846AC
:1075300004B070BD0C4B0122C4E919234FF6FF7350
:10754000A4F86C3084F86E30002EF0D094F85D30E2
:1075500023F00E03E9E76FF00805E8E76C00002070
:10756000985C03000201FFFF0001FFFF70B51446A5
:1075700092F8442005460E4601F064FB002840F0D6
:10758000B68094F845203146284601F06CFB00286F
:1075900040F0AD8094F848203146284601F096FB33
:1075A000002840F0A48094F84A203146284601F093
:1075B0009EFB002840F09B8094F8602031462846CE
:1075C00001F073FB002840F0928022783146284673
:1075D00001F072FA002840F08A806278314628462D
:1075E00001F07AFA002840F082802279314628465C
:1075F00001F094FA00287AD194F8462031462846C2
:1076000001F042FB002872D1A26A3146284601F0FF
:10761000A6FA00286BD1226B3146284601F0AFFA5A
:10762000002864D1E26A3146284601F0B8FA002801
:107630005DD1A2783146284601F05FFA002856D184
:1076400094F838203146284601F0C9FA00284ED176
:10765000626B3146284601F0B2FA002847D194F80F
:107660003C203146284601F0DCFA00283FD104F1E5
:107670004B023146284601F08EFBC0BB94F85D20DA
:107680003146284601F044FB88BB94F83B20314644
:10769000284601F0B5FA50BB94F8B0203146284690
:1076A00001F058FB18BB94F85C203146284601F0E5
:1076B00040FBE0B9E2883146284601F040FAB0B913
:1076C000A26904F108033146284601F00DFC70B9A7
:1076D00004F164023146284601F08AFB38B9D4F837
:1076E000B42031462846BDE8704001F044BB70BD6F
:1076F0002DE9F041E2B004460E4617460021F02283
:1077000026A812F0F5FA602200210EA812F0F0FA75
